{
	"assetv_ico.sol": {
		"assetv_ico": {
			"abi": [
				{
					"inputs": [
						{
							"internalType": "address",
							"name": "investor",
							"type": "address"
						},
						{
							"internalType": "uint256",
							"name": "usd_invested",
							"type": "uint256"
						}
					],
					"name": "buy_assetv",
					"outputs": [],
					"stateMutability": "nonpayable",
					"type": "function"
				},
				{
					"inputs": [
						{
							"internalType": "address",
							"name": "investor",
							"type": "address"
						}
					],
					"name": "equity_in_assetv",
					"outputs": [
						{
							"internalType": "uint256",
							"name": "",
							"type": "uint256"
						}
					],
					"stateMutability": "view",
					"type": "function"
				},
				{
					"inputs": [
						{
							"internalType": "address",
							"name": "investor",
							"type": "address"
						}
					],
					"name": "equity_in_usd",
					"outputs": [
						{
							"internalType": "uint256",
							"name": "",
							"type": "uint256"
						}
					],
					"stateMutability": "view",
					"type": "function"
				},
				{
					"inputs": [],
					"name": "max_assetv",
					"outputs": [
						{
							"internalType": "uint256",
							"name": "",
							"type": "uint256"
						}
					],
					"stateMutability": "view",
					"type": "function"
				},
				{
					"inputs": [
						{
							"internalType": "address",
							"name": "investor",
							"type": "address"
						},
						{
							"internalType": "uint256",
							"name": "assetv_sold",
							"type": "uint256"
						}
					],
					"name": "sell_assetv",
					"outputs": [],
					"stateMutability": "nonpayable",
					"type": "function"
				},
				{
					"inputs": [],
					"name": "total_assetv_bought",
					"outputs": [
						{
							"internalType": "uint256",
							"name": "",
							"type": "uint256"
						}
					],
					"stateMutability": "view",
					"type": "function"
				},
				{
					"inputs": [],
					"name": "usd_to_assetv",
					"outputs": [
						{
							"internalType": "uint256",
							"name": "",
							"type": "uint256"
						}
					],
					"stateMutability": "view",
					"type": "function"
				}
			],
			"devdoc": {
				"kind": "dev",
				"methods": {},
				"version": 1
			},
			"evm": {
				"assembly": "    /* \"assetv_ico.sol\":124:2041  contract assetv_ico {... */\n  mstore(0x40, 0x80)\n    /* \"assetv_ico.sol\":214:220  100000 */\n  0x0186a0\n    /* \"assetv_ico.sol\":189:220  uint public max_assetv = 100000 */\n  0x00\n  sstore\n    /* \"assetv_ico.sol\":292:296  1000 */\n  0x03e8\n    /* \"assetv_ico.sol\":264:296  uint public usd_to_assetv = 1000 */\n  0x01\n  sstore\n    /* \"assetv_ico.sol\":392:393  0 */\n  0x00\n    /* \"assetv_ico.sol\":359:393  uint public total_assetv_bought =0 */\n  0x02\n  sstore\n    /* \"assetv_ico.sol\":124:2041  contract assetv_ico {... */\n  callvalue\n  dup1\n  iszero\n  tag_1\n  jumpi\n  0x00\n  dup1\n  revert\ntag_1:\n  pop\n  dataSize(sub_0)\n  dup1\n  dataOffset(sub_0)\n  0x00\n  codecopy\n  0x00\n  return\nstop\n\nsub_0: assembly {\n        /* \"assetv_ico.sol\":124:2041  contract assetv_ico {... */\n      mstore(0x40, 0x80)\n      callvalue\n      dup1\n      iszero\n      tag_1\n      jumpi\n      0x00\n      dup1\n      revert\n    tag_1:\n      pop\n      jumpi(tag_2, lt(calldatasize, 0x04))\n      shr(0xe0, calldataload(0x00))\n      dup1\n      0x69c85507\n      gt\n      tag_10\n      jumpi\n      dup1\n      0x69c85507\n      eq\n      tag_6\n      jumpi\n      dup1\n      0x8443c81d\n      eq\n      tag_7\n      jumpi\n      dup1\n      0x892a0d64\n      eq\n      tag_8\n      jumpi\n      dup1\n      0x9305add5\n      eq\n      tag_9\n      jumpi\n      jump(tag_2)\n    tag_10:\n      dup1\n      0x10c51c1b\n      eq\n      tag_3\n      jumpi\n      dup1\n      0x3f275742\n      eq\n      tag_4\n      jumpi\n      dup1\n      0x401b6caf\n      eq\n      tag_5\n      jumpi\n    tag_2:\n      0x00\n      dup1\n      revert\n        /* \"assetv_ico.sol\":1004:1120  function equity_in_usd(address investor) external view returns (uint) {... */\n    tag_3:\n      tag_11\n      0x04\n      dup1\n      calldatasize\n      sub\n      dup2\n      add\n      swap1\n      tag_12\n      swap2\n      swap1\n      tag_13\n      jump\t// in\n    tag_12:\n      tag_14\n      jump\t// in\n    tag_11:\n      mload(0x40)\n      tag_15\n      swap2\n      swap1\n      tag_16\n      jump\t// in\n    tag_15:\n      mload(0x40)\n      dup1\n      swap2\n      sub\n      swap1\n      return\n        /* \"assetv_ico.sol\":824:946  function equity_in_assetv(address investor) external view returns (uint) {... */\n    tag_4:\n      tag_17\n      0x04\n      dup1\n      calldatasize\n      sub\n      dup2\n      add\n      swap1\n      tag_18\n      swap2\n      swap1\n      tag_13\n      jump\t// in\n    tag_18:\n      tag_19\n      jump\t// in\n    tag_17:\n      mload(0x40)\n      tag_20\n      swap2\n      swap1\n      tag_16\n      jump\t// in\n    tag_20:\n      mload(0x40)\n      dup1\n      swap2\n      sub\n      swap1\n      return\n        /* \"assetv_ico.sol\":264:296  uint public usd_to_assetv = 1000 */\n    tag_5:\n      tag_21\n      tag_22\n      jump\t// in\n    tag_21:\n      mload(0x40)\n      tag_23\n      swap2\n      swap1\n      tag_16\n      jump\t// in\n    tag_23:\n      mload(0x40)\n      dup1\n      swap2\n      sub\n      swap1\n      return\n        /* \"assetv_ico.sol\":1146:1769  function buy_assetv(address investor, uint usd_invested) external //this is the function... */\n    tag_6:\n      tag_24\n      0x04\n      dup1\n      calldatasize\n      sub\n      dup2\n      add\n      swap1\n      tag_25\n      swap2\n      swap1\n      tag_26\n      jump\t// in\n    tag_25:\n      tag_27\n      jump\t// in\n    tag_24:\n      stop\n        /* \"assetv_ico.sol\":1799:2038  function sell_assetv(address investor, uint assetv_sold) external {     ... */\n    tag_7:\n      tag_28\n      0x04\n      dup1\n      calldatasize\n      sub\n      dup2\n      add\n      swap1\n      tag_29\n      swap2\n      swap1\n      tag_26\n      jump\t// in\n    tag_29:\n      tag_30\n      jump\t// in\n    tag_28:\n      stop\n        /* \"assetv_ico.sol\":359:393  uint public total_assetv_bought =0 */\n    tag_8:\n      tag_31\n      tag_32\n      jump\t// in\n    tag_31:\n      mload(0x40)\n      tag_33\n      swap2\n      swap1\n      tag_16\n      jump\t// in\n    tag_33:\n      mload(0x40)\n      dup1\n      swap2\n      sub\n      swap1\n      return\n        /* \"assetv_ico.sol\":189:220  uint public max_assetv = 100000 */\n    tag_9:\n      tag_34\n      tag_35\n      jump\t// in\n    tag_34:\n      mload(0x40)\n      tag_36\n      swap2\n      swap1\n      tag_16\n      jump\t// in\n    tag_36:\n      mload(0x40)\n      dup1\n      swap2\n      sub\n      swap1\n      return\n        /* \"assetv_ico.sol\":1004:1120  function equity_in_usd(address investor) external view returns (uint) {... */\n    tag_14:\n        /* \"assetv_ico.sol\":1068:1072  uint */\n      0x00\n        /* \"assetv_ico.sol\":1092:1102  equity_usd */\n      0x04\n        /* \"assetv_ico.sol\":1092:1112  equity_usd[investor] */\n      0x00\n        /* \"assetv_ico.sol\":1103:1111  investor */\n      dup4\n        /* \"assetv_ico.sol\":1092:1112  equity_usd[investor] */\n      0xffffffffffffffffffffffffffffffffffffffff\n      and\n      0xffffffffffffffffffffffffffffffffffffffff\n      and\n      dup2\n      mstore\n      0x20\n      add\n      swap1\n      dup2\n      mstore\n      0x20\n      add\n      0x00\n      keccak256\n      sload\n        /* \"assetv_ico.sol\":1085:1112  return equity_usd[investor] */\n      swap1\n      pop\n        /* \"assetv_ico.sol\":1004:1120  function equity_in_usd(address investor) external view returns (uint) {... */\n      swap2\n      swap1\n      pop\n      jump\t// out\n        /* \"assetv_ico.sol\":824:946  function equity_in_assetv(address investor) external view returns (uint) {... */\n    tag_19:\n        /* \"assetv_ico.sol\":891:895  uint */\n      0x00\n        /* \"assetv_ico.sol\":915:928  equity_assetv */\n      0x03\n        /* \"assetv_ico.sol\":915:938  equity_assetv[investor] */\n      0x00\n        /* \"assetv_ico.sol\":929:937  investor */\n      dup4\n        /* \"assetv_ico.sol\":915:938  equity_assetv[investor] */\n      0xffffffffffffffffffffffffffffffffffffffff\n      and\n      0xffffffffffffffffffffffffffffffffffffffff\n      and\n      dup2\n      mstore\n      0x20\n      add\n      swap1\n      dup2\n      mstore\n      0x20\n      add\n      0x00\n      keccak256\n      sload\n        /* \"assetv_ico.sol\":908:938  return equity_assetv[investor] */\n      swap1\n      pop\n        /* \"assetv_ico.sol\":824:946  function equity_in_assetv(address investor) external view returns (uint) {... */\n      swap2\n      swap1\n      pop\n      jump\t// out\n        /* \"assetv_ico.sol\":264:296  uint public usd_to_assetv = 1000 */\n    tag_22:\n      sload(0x01)\n      dup2\n      jump\t// out\n        /* \"assetv_ico.sol\":1146:1769  function buy_assetv(address investor, uint usd_invested) external //this is the function... */\n    tag_27:\n        /* \"assetv_ico.sol\":1250:1262  usd_invested */\n      dup1\n        /* \"assetv_ico.sol\":731:741  max_assetv */\n      sload(0x00)\n        /* \"assetv_ico.sol\":707:726  total_assetv_bought */\n      sload(0x02)\n        /* \"assetv_ico.sol\":691:704  usd_to_assetv */\n      sload(0x01)\n        /* \"assetv_ico.sol\":678:690  usd_invested */\n      dup4\n        /* \"assetv_ico.sol\":678:704  usd_invested*usd_to_assetv */\n      tag_40\n      swap2\n      swap1\n      tag_41\n      jump\t// in\n    tag_40:\n        /* \"assetv_ico.sol\":678:726  usd_invested*usd_to_assetv + total_assetv_bought */\n      tag_42\n      swap2\n      swap1\n      tag_43\n      jump\t// in\n    tag_42:\n        /* \"assetv_ico.sol\":677:741  (usd_invested*usd_to_assetv + total_assetv_bought) <= max_assetv */\n      gt\n      iszero\n        /* \"assetv_ico.sol\":669:742  require((usd_invested*usd_to_assetv + total_assetv_bought) <= max_assetv) */\n      tag_44\n      jumpi\n      0x00\n      dup1\n      revert\n    tag_44:\n        /* \"assetv_ico.sol\":1367:1385  uint assetv_bought */\n      0x00\n        /* \"assetv_ico.sol\":1400:1413  usd_to_assetv */\n      sload(0x01)\n        /* \"assetv_ico.sol\":1387:1399  usd_invested */\n      dup4\n        /* \"assetv_ico.sol\":1387:1413  usd_invested*usd_to_assetv */\n      tag_46\n      swap2\n      swap1\n      tag_41\n      jump\t// in\n    tag_46:\n        /* \"assetv_ico.sol\":1367:1413  uint assetv_bought= usd_invested*usd_to_assetv */\n      swap1\n      pop\n        /* \"assetv_ico.sol\":1522:1535  assetv_bought */\n      dup1\n        /* \"assetv_ico.sol\":1496:1509  equity_assetv */\n      0x03\n        /* \"assetv_ico.sol\":1496:1519  equity_assetv[investor] */\n      0x00\n        /* \"assetv_ico.sol\":1510:1518  investor */\n      dup7\n        /* \"assetv_ico.sol\":1496:1519  equity_assetv[investor] */\n      0xffffffffffffffffffffffffffffffffffffffff\n      and\n      0xffffffffffffffffffffffffffffffffffffffff\n      and\n      dup2\n      mstore\n      0x20\n      add\n      swap1\n      dup2\n      mstore\n      0x20\n      add\n      0x00\n      keccak256\n      0x00\n        /* \"assetv_ico.sol\":1496:1535  equity_assetv[investor] +=assetv_bought */\n      dup3\n      dup3\n      sload\n      tag_47\n      swap2\n      swap1\n      tag_43\n      jump\t// in\n    tag_47:\n      swap3\n      pop\n      pop\n      dup2\n      swap1\n      sstore\n      pop\n        /* \"assetv_ico.sol\":1634:1646  usd_invested */\n      dup3\n        /* \"assetv_ico.sol\":1610:1620  equity_usd */\n      0x04\n        /* \"assetv_ico.sol\":1610:1630  equity_usd[investor] */\n      0x00\n        /* \"assetv_ico.sol\":1621:1629  investor */\n      dup7\n        /* \"assetv_ico.sol\":1610:1630  equity_usd[investor] */\n      0xffffffffffffffffffffffffffffffffffffffff\n      and\n      0xffffffffffffffffffffffffffffffffffffffff\n      and\n      dup2\n      mstore\n      0x20\n      add\n      swap1\n      dup2\n      mstore\n      0x20\n      add\n      0x00\n      keccak256\n      0x00\n        /* \"assetv_ico.sol\":1610:1646  equity_usd[investor] += usd_invested */\n      dup3\n      dup3\n      sload\n      tag_48\n      swap2\n      swap1\n      tag_43\n      jump\t// in\n    tag_48:\n      swap3\n      pop\n      pop\n      dup2\n      swap1\n      sstore\n      pop\n        /* \"assetv_ico.sol\":1716:1729  assetv_bought */\n      dup1\n        /* \"assetv_ico.sol\":1693:1712  total_assetv_bought */\n      0x02\n      0x00\n        /* \"assetv_ico.sol\":1693:1729  total_assetv_bought += assetv_bought */\n      dup3\n      dup3\n      sload\n      tag_49\n      swap2\n      swap1\n      tag_43\n      jump\t// in\n    tag_49:\n      swap3\n      pop\n      pop\n      dup2\n      swap1\n      sstore\n      pop\n        /* \"assetv_ico.sol\":1264:1769  {   //modifier checks whether the investor can buy AssetV without exceeding the total supply ... */\n      pop\n        /* \"assetv_ico.sol\":1146:1769  function buy_assetv(address investor, uint usd_invested) external //this is the function... */\n      pop\n      pop\n      pop\n      jump\t// out\n        /* \"assetv_ico.sol\":1799:2038  function sell_assetv(address investor, uint assetv_sold) external {     ... */\n    tag_30:\n        /* \"assetv_ico.sol\":1907:1918  assetv_sold */\n      dup1\n        /* \"assetv_ico.sol\":1881:1894  equity_assetv */\n      0x03\n        /* \"assetv_ico.sol\":1881:1904  equity_assetv[investor] */\n      0x00\n        /* \"assetv_ico.sol\":1895:1903  investor */\n      dup5\n        /* \"assetv_ico.sol\":1881:1904  equity_assetv[investor] */\n      0xffffffffffffffffffffffffffffffffffffffff\n      and\n      0xffffffffffffffffffffffffffffffffffffffff\n      and\n      dup2\n      mstore\n      0x20\n      add\n      swap1\n      dup2\n      mstore\n      0x20\n      add\n      0x00\n      keccak256\n      0x00\n        /* \"assetv_ico.sol\":1881:1918  equity_assetv[investor] -=assetv_sold */\n      dup3\n      dup3\n      sload\n      tag_51\n      swap2\n      swap1\n      tag_52\n      jump\t// in\n    tag_51:\n      swap3\n      pop\n      pop\n      dup2\n      swap1\n      sstore\n      pop\n        /* \"assetv_ico.sol\":1979:1983  1000 */\n      0x03e8\n        /* \"assetv_ico.sol\":1953:1966  equity_assetv */\n      0x03\n        /* \"assetv_ico.sol\":1953:1976  equity_assetv[investor] */\n      0x00\n        /* \"assetv_ico.sol\":1967:1975  investor */\n      dup5\n        /* \"assetv_ico.sol\":1953:1976  equity_assetv[investor] */\n      0xffffffffffffffffffffffffffffffffffffffff\n      and\n      0xffffffffffffffffffffffffffffffffffffffff\n      and\n      dup2\n      mstore\n      0x20\n      add\n      swap1\n      dup2\n      mstore\n      0x20\n      add\n      0x00\n      keccak256\n      sload\n        /* \"assetv_ico.sol\":1953:1983  equity_assetv[investor] / 1000 */\n      tag_53\n      swap2\n      swap1\n      tag_54\n      jump\t// in\n    tag_53:\n        /* \"assetv_ico.sol\":1930:1940  equity_usd */\n      0x04\n        /* \"assetv_ico.sol\":1930:1950  equity_usd[investor] */\n      0x00\n        /* \"assetv_ico.sol\":1941:1949  investor */\n      dup5\n        /* \"assetv_ico.sol\":1930:1950  equity_usd[investor] */\n      0xffffffffffffffffffffffffffffffffffffffff\n      and\n      0xffffffffffffffffffffffffffffffffffffffff\n      and\n      dup2\n      mstore\n      0x20\n      add\n      swap1\n      dup2\n      mstore\n      0x20\n      add\n      0x00\n      keccak256\n        /* \"assetv_ico.sol\":1930:1983  equity_usd[investor] = equity_assetv[investor] / 1000 */\n      dup2\n      swap1\n      sstore\n      pop\n        /* \"assetv_ico.sol\":2018:2029  assetv_sold */\n      dup1\n        /* \"assetv_ico.sol\":1995:2014  total_assetv_bought */\n      0x02\n      0x00\n        /* \"assetv_ico.sol\":1995:2029  total_assetv_bought -= assetv_sold */\n      dup3\n      dup3\n      sload\n      tag_55\n      swap2\n      swap1\n      tag_52\n      jump\t// in\n    tag_55:\n      swap3\n      pop\n      pop\n      dup2\n      swap1\n      sstore\n      pop\n        /* \"assetv_ico.sol\":1799:2038  function sell_assetv(address investor, uint assetv_sold) external {     ... */\n      pop\n      pop\n      jump\t// out\n        /* \"assetv_ico.sol\":359:393  uint public total_assetv_bought =0 */\n    tag_32:\n      sload(0x02)\n      dup2\n      jump\t// out\n        /* \"assetv_ico.sol\":189:220  uint public max_assetv = 100000 */\n    tag_35:\n      sload(0x00)\n      dup2\n      jump\t// out\n        /* \"#utility.yul\":88:205   */\n    tag_57:\n        /* \"#utility.yul\":197:198   */\n      0x00\n        /* \"#utility.yul\":194:195   */\n      dup1\n        /* \"#utility.yul\":187:199   */\n      revert\n        /* \"#utility.yul\":334:460   */\n    tag_59:\n        /* \"#utility.yul\":371:378   */\n      0x00\n        /* \"#utility.yul\":411:453   */\n      0xffffffffffffffffffffffffffffffffffffffff\n        /* \"#utility.yul\":404:409   */\n      dup3\n        /* \"#utility.yul\":400:454   */\n      and\n        /* \"#utility.yul\":389:454   */\n      swap1\n      pop\n        /* \"#utility.yul\":334:460   */\n      swap2\n      swap1\n      pop\n      jump\t// out\n        /* \"#utility.yul\":466:562   */\n    tag_60:\n        /* \"#utility.yul\":503:510   */\n      0x00\n        /* \"#utility.yul\":532:556   */\n      tag_75\n        /* \"#utility.yul\":550:555   */\n      dup3\n        /* \"#utility.yul\":532:556   */\n      tag_59\n      jump\t// in\n    tag_75:\n        /* \"#utility.yul\":521:556   */\n      swap1\n      pop\n        /* \"#utility.yul\":466:562   */\n      swap2\n      swap1\n      pop\n      jump\t// out\n        /* \"#utility.yul\":568:690   */\n    tag_61:\n        /* \"#utility.yul\":641:665   */\n      tag_77\n        /* \"#utility.yul\":659:664   */\n      dup2\n        /* \"#utility.yul\":641:665   */\n      tag_60\n      jump\t// in\n    tag_77:\n        /* \"#utility.yul\":634:639   */\n      dup2\n        /* \"#utility.yul\":631:666   */\n      eq\n        /* \"#utility.yul\":621:684   */\n      tag_78\n      jumpi\n        /* \"#utility.yul\":680:681   */\n      0x00\n        /* \"#utility.yul\":677:678   */\n      dup1\n        /* \"#utility.yul\":670:682   */\n      revert\n        /* \"#utility.yul\":621:684   */\n    tag_78:\n        /* \"#utility.yul\":568:690   */\n      pop\n      jump\t// out\n        /* \"#utility.yul\":696:835   */\n    tag_62:\n        /* \"#utility.yul\":742:747   */\n      0x00\n        /* \"#utility.yul\":780:786   */\n      dup2\n        /* \"#utility.yul\":767:787   */\n      calldataload\n        /* \"#utility.yul\":758:787   */\n      swap1\n      pop\n        /* \"#utility.yul\":796:829   */\n      tag_80\n        /* \"#utility.yul\":823:828   */\n      dup2\n        /* \"#utility.yul\":796:829   */\n      tag_61\n      jump\t// in\n    tag_80:\n        /* \"#utility.yul\":696:835   */\n      swap3\n      swap2\n      pop\n      pop\n      jump\t// out\n        /* \"#utility.yul\":841:1170   */\n    tag_13:\n        /* \"#utility.yul\":900:906   */\n      0x00\n        /* \"#utility.yul\":949:951   */\n      0x20\n        /* \"#utility.yul\":937:946   */\n      dup3\n        /* \"#utility.yul\":928:935   */\n      dup5\n        /* \"#utility.yul\":924:947   */\n      sub\n        /* \"#utility.yul\":920:952   */\n      slt\n        /* \"#utility.yul\":917:1036   */\n      iszero\n      tag_82\n      jumpi\n        /* \"#utility.yul\":955:1034   */\n      tag_83\n      tag_57\n      jump\t// in\n    tag_83:\n        /* \"#utility.yul\":917:1036   */\n    tag_82:\n        /* \"#utility.yul\":1075:1076   */\n      0x00\n        /* \"#utility.yul\":1100:1153   */\n      tag_84\n        /* \"#utility.yul\":1145:1152   */\n      dup5\n        /* \"#utility.yul\":1136:1142   */\n      dup3\n        /* \"#utility.yul\":1125:1134   */\n      dup6\n        /* \"#utility.yul\":1121:1143   */\n      add\n        /* \"#utility.yul\":1100:1153   */\n      tag_62\n      jump\t// in\n    tag_84:\n        /* \"#utility.yul\":1090:1153   */\n      swap2\n      pop\n        /* \"#utility.yul\":1046:1163   */\n      pop\n        /* \"#utility.yul\":841:1170   */\n      swap3\n      swap2\n      pop\n      pop\n      jump\t// out\n        /* \"#utility.yul\":1176:1253   */\n    tag_63:\n        /* \"#utility.yul\":1213:1220   */\n      0x00\n        /* \"#utility.yul\":1242:1247   */\n      dup2\n        /* \"#utility.yul\":1231:1247   */\n      swap1\n      pop\n        /* \"#utility.yul\":1176:1253   */\n      swap2\n      swap1\n      pop\n      jump\t// out\n        /* \"#utility.yul\":1259:1377   */\n    tag_64:\n        /* \"#utility.yul\":1346:1370   */\n      tag_87\n        /* \"#utility.yul\":1364:1369   */\n      dup2\n        /* \"#utility.yul\":1346:1370   */\n      tag_63\n      jump\t// in\n    tag_87:\n        /* \"#utility.yul\":1341:1344   */\n      dup3\n        /* \"#utility.yul\":1334:1371   */\n      mstore\n        /* \"#utility.yul\":1259:1377   */\n      pop\n      pop\n      jump\t// out\n        /* \"#utility.yul\":1383:1605   */\n    tag_16:\n        /* \"#utility.yul\":1476:1480   */\n      0x00\n        /* \"#utility.yul\":1514:1516   */\n      0x20\n        /* \"#utility.yul\":1503:1512   */\n      dup3\n        /* \"#utility.yul\":1499:1517   */\n      add\n        /* \"#utility.yul\":1491:1517   */\n      swap1\n      pop\n        /* \"#utility.yul\":1527:1598   */\n      tag_89\n        /* \"#utility.yul\":1595:1596   */\n      0x00\n        /* \"#utility.yul\":1584:1593   */\n      dup4\n        /* \"#utility.yul\":1580:1597   */\n      add\n        /* \"#utility.yul\":1571:1577   */\n      dup5\n        /* \"#utility.yul\":1527:1598   */\n      tag_64\n      jump\t// in\n    tag_89:\n        /* \"#utility.yul\":1383:1605   */\n      swap3\n      swap2\n      pop\n      pop\n      jump\t// out\n        /* \"#utility.yul\":1611:1733   */\n    tag_65:\n        /* \"#utility.yul\":1684:1708   */\n      tag_91\n        /* \"#utility.yul\":1702:1707   */\n      dup2\n        /* \"#utility.yul\":1684:1708   */\n      tag_63\n      jump\t// in\n    tag_91:\n        /* \"#utility.yul\":1677:1682   */\n      dup2\n        /* \"#utility.yul\":1674:1709   */\n      eq\n        /* \"#utility.yul\":1664:1727   */\n      tag_92\n      jumpi\n        /* \"#utility.yul\":1723:1724   */\n      0x00\n        /* \"#utility.yul\":1720:1721   */\n      dup1\n        /* \"#utility.yul\":1713:1725   */\n      revert\n        /* \"#utility.yul\":1664:1727   */\n    tag_92:\n        /* \"#utility.yul\":1611:1733   */\n      pop\n      jump\t// out\n        /* \"#utility.yul\":1739:1878   */\n    tag_66:\n        /* \"#utility.yul\":1785:1790   */\n      0x00\n        /* \"#utility.yul\":1823:1829   */\n      dup2\n        /* \"#utility.yul\":1810:1830   */\n      calldataload\n        /* \"#utility.yul\":1801:1830   */\n      swap1\n      pop\n        /* \"#utility.yul\":1839:1872   */\n      tag_94\n        /* \"#utility.yul\":1866:1871   */\n      dup2\n        /* \"#utility.yul\":1839:1872   */\n      tag_65\n      jump\t// in\n    tag_94:\n        /* \"#utility.yul\":1739:1878   */\n      swap3\n      swap2\n      pop\n      pop\n      jump\t// out\n        /* \"#utility.yul\":1884:2358   */\n    tag_26:\n        /* \"#utility.yul\":1952:1958   */\n      0x00\n        /* \"#utility.yul\":1960:1966   */\n      dup1\n        /* \"#utility.yul\":2009:2011   */\n      0x40\n        /* \"#utility.yul\":1997:2006   */\n      dup4\n        /* \"#utility.yul\":1988:1995   */\n      dup6\n        /* \"#utility.yul\":1984:2007   */\n      sub\n        /* \"#utility.yul\":1980:2012   */\n      slt\n        /* \"#utility.yul\":1977:2096   */\n      iszero\n      tag_96\n      jumpi\n        /* \"#utility.yul\":2015:2094   */\n      tag_97\n      tag_57\n      jump\t// in\n    tag_97:\n        /* \"#utility.yul\":1977:2096   */\n    tag_96:\n        /* \"#utility.yul\":2135:2136   */\n      0x00\n        /* \"#utility.yul\":2160:2213   */\n      tag_98\n        /* \"#utility.yul\":2205:2212   */\n      dup6\n        /* \"#utility.yul\":2196:2202   */\n      dup3\n        /* \"#utility.yul\":2185:2194   */\n      dup7\n        /* \"#utility.yul\":2181:2203   */\n      add\n        /* \"#utility.yul\":2160:2213   */\n      tag_62\n      jump\t// in\n    tag_98:\n        /* \"#utility.yul\":2150:2213   */\n      swap3\n      pop\n        /* \"#utility.yul\":2106:2223   */\n      pop\n        /* \"#utility.yul\":2262:2264   */\n      0x20\n        /* \"#utility.yul\":2288:2341   */\n      tag_99\n        /* \"#utility.yul\":2333:2340   */\n      dup6\n        /* \"#utility.yul\":2324:2330   */\n      dup3\n        /* \"#utility.yul\":2313:2322   */\n      dup7\n        /* \"#utility.yul\":2309:2331   */\n      add\n        /* \"#utility.yul\":2288:2341   */\n      tag_66\n      jump\t// in\n    tag_99:\n        /* \"#utility.yul\":2278:2341   */\n      swap2\n      pop\n        /* \"#utility.yul\":2233:2351   */\n      pop\n        /* \"#utility.yul\":1884:2358   */\n      swap3\n      pop\n      swap3\n      swap1\n      pop\n      jump\t// out\n        /* \"#utility.yul\":2364:2544   */\n    tag_67:\n        /* \"#utility.yul\":2412:2489   */\n      0x4e487b7100000000000000000000000000000000000000000000000000000000\n        /* \"#utility.yul\":2409:2410   */\n      0x00\n        /* \"#utility.yul\":2402:2490   */\n      mstore\n        /* \"#utility.yul\":2509:2513   */\n      0x11\n        /* \"#utility.yul\":2506:2507   */\n      0x04\n        /* \"#utility.yul\":2499:2514   */\n      mstore\n        /* \"#utility.yul\":2533:2537   */\n      0x24\n        /* \"#utility.yul\":2530:2531   */\n      0x00\n        /* \"#utility.yul\":2523:2538   */\n      revert\n        /* \"#utility.yul\":2550:2960   */\n    tag_41:\n        /* \"#utility.yul\":2590:2597   */\n      0x00\n        /* \"#utility.yul\":2613:2633   */\n      tag_102\n        /* \"#utility.yul\":2631:2632   */\n      dup3\n        /* \"#utility.yul\":2613:2633   */\n      tag_63\n      jump\t// in\n    tag_102:\n        /* \"#utility.yul\":2608:2633   */\n      swap2\n      pop\n        /* \"#utility.yul\":2647:2667   */\n      tag_103\n        /* \"#utility.yul\":2665:2666   */\n      dup4\n        /* \"#utility.yul\":2647:2667   */\n      tag_63\n      jump\t// in\n    tag_103:\n        /* \"#utility.yul\":2642:2667   */\n      swap3\n      pop\n        /* \"#utility.yul\":2702:2703   */\n      dup3\n        /* \"#utility.yul\":2699:2700   */\n      dup3\n        /* \"#utility.yul\":2695:2704   */\n      mul\n        /* \"#utility.yul\":2724:2754   */\n      tag_104\n        /* \"#utility.yul\":2742:2753   */\n      dup2\n        /* \"#utility.yul\":2724:2754   */\n      tag_63\n      jump\t// in\n    tag_104:\n        /* \"#utility.yul\":2713:2754   */\n      swap2\n      pop\n        /* \"#utility.yul\":2903:2904   */\n      dup3\n        /* \"#utility.yul\":2894:2901   */\n      dup3\n        /* \"#utility.yul\":2890:2905   */\n      div\n        /* \"#utility.yul\":2887:2888   */\n      dup5\n        /* \"#utility.yul\":2884:2906   */\n      eq\n        /* \"#utility.yul\":2864:2865   */\n      dup4\n        /* \"#utility.yul\":2857:2866   */\n      iszero\n        /* \"#utility.yul\":2837:2920   */\n      or\n        /* \"#utility.yul\":2814:2953   */\n      tag_105\n      jumpi\n        /* \"#utility.yul\":2933:2951   */\n      tag_106\n      tag_67\n      jump\t// in\n    tag_106:\n        /* \"#utility.yul\":2814:2953   */\n    tag_105:\n        /* \"#utility.yul\":2598:2960   */\n      pop\n        /* \"#utility.yul\":2550:2960   */\n      swap3\n      swap2\n      pop\n      pop\n      jump\t// out\n        /* \"#utility.yul\":2966:3157   */\n    tag_43:\n        /* \"#utility.yul\":3006:3009   */\n      0x00\n        /* \"#utility.yul\":3025:3045   */\n      tag_108\n        /* \"#utility.yul\":3043:3044   */\n      dup3\n        /* \"#utility.yul\":3025:3045   */\n      tag_63\n      jump\t// in\n    tag_108:\n        /* \"#utility.yul\":3020:3045   */\n      swap2\n      pop\n        /* \"#utility.yul\":3059:3079   */\n      tag_109\n        /* \"#utility.yul\":3077:3078   */\n      dup4\n        /* \"#utility.yul\":3059:3079   */\n      tag_63\n      jump\t// in\n    tag_109:\n        /* \"#utility.yul\":3054:3079   */\n      swap3\n      pop\n        /* \"#utility.yul\":3102:3103   */\n      dup3\n        /* \"#utility.yul\":3099:3100   */\n      dup3\n        /* \"#utility.yul\":3095:3104   */\n      add\n        /* \"#utility.yul\":3088:3104   */\n      swap1\n      pop\n        /* \"#utility.yul\":3123:3126   */\n      dup1\n        /* \"#utility.yul\":3120:3121   */\n      dup3\n        /* \"#utility.yul\":3117:3127   */\n      gt\n        /* \"#utility.yul\":3114:3150   */\n      iszero\n      tag_110\n      jumpi\n        /* \"#utility.yul\":3130:3148   */\n      tag_111\n      tag_67\n      jump\t// in\n    tag_111:\n        /* \"#utility.yul\":3114:3150   */\n    tag_110:\n        /* \"#utility.yul\":2966:3157   */\n      swap3\n      swap2\n      pop\n      pop\n      jump\t// out\n        /* \"#utility.yul\":3163:3357   */\n    tag_52:\n        /* \"#utility.yul\":3203:3207   */\n      0x00\n        /* \"#utility.yul\":3223:3243   */\n      tag_113\n        /* \"#utility.yul\":3241:3242   */\n      dup3\n        /* \"#utility.yul\":3223:3243   */\n      tag_63\n      jump\t// in\n    tag_113:\n        /* \"#utility.yul\":3218:3243   */\n      swap2\n      pop\n        /* \"#utility.yul\":3257:3277   */\n      tag_114\n        /* \"#utility.yul\":3275:3276   */\n      dup4\n        /* \"#utility.yul\":3257:3277   */\n      tag_63\n      jump\t// in\n    tag_114:\n        /* \"#utility.yul\":3252:3277   */\n      swap3\n      pop\n        /* \"#utility.yul\":3301:3302   */\n      dup3\n        /* \"#utility.yul\":3298:3299   */\n      dup3\n        /* \"#utility.yul\":3294:3303   */\n      sub\n        /* \"#utility.yul\":3286:3303   */\n      swap1\n      pop\n        /* \"#utility.yul\":3325:3326   */\n      dup2\n        /* \"#utility.yul\":3319:3323   */\n      dup2\n        /* \"#utility.yul\":3316:3327   */\n      gt\n        /* \"#utility.yul\":3313:3350   */\n      iszero\n      tag_115\n      jumpi\n        /* \"#utility.yul\":3330:3348   */\n      tag_116\n      tag_67\n      jump\t// in\n    tag_116:\n        /* \"#utility.yul\":3313:3350   */\n    tag_115:\n        /* \"#utility.yul\":3163:3357   */\n      swap3\n      swap2\n      pop\n      pop\n      jump\t// out\n        /* \"#utility.yul\":3363:3543   */\n    tag_68:\n        /* \"#utility.yul\":3411:3488   */\n      0x4e487b7100000000000000000000000000000000000000000000000000000000\n        /* \"#utility.yul\":3408:3409   */\n      0x00\n        /* \"#utility.yul\":3401:3489   */\n      mstore\n        /* \"#utility.yul\":3508:3512   */\n      0x12\n        /* \"#utility.yul\":3505:3506   */\n      0x04\n        /* \"#utility.yul\":3498:3513   */\n      mstore\n        /* \"#utility.yul\":3532:3536   */\n      0x24\n        /* \"#utility.yul\":3529:3530   */\n      0x00\n        /* \"#utility.yul\":3522:3537   */\n      revert\n        /* \"#utility.yul\":3549:3734   */\n    tag_54:\n        /* \"#utility.yul\":3589:3590   */\n      0x00\n        /* \"#utility.yul\":3606:3626   */\n      tag_119\n        /* \"#utility.yul\":3624:3625   */\n      dup3\n        /* \"#utility.yul\":3606:3626   */\n      tag_63\n      jump\t// in\n    tag_119:\n        /* \"#utility.yul\":3601:3626   */\n      swap2\n      pop\n        /* \"#utility.yul\":3640:3660   */\n      tag_120\n        /* \"#utility.yul\":3658:3659   */\n      dup4\n        /* \"#utility.yul\":3640:3660   */\n      tag_63\n      jump\t// in\n    tag_120:\n        /* \"#utility.yul\":3635:3660   */\n      swap3\n      pop\n        /* \"#utility.yul\":3679:3680   */\n      dup3\n        /* \"#utility.yul\":3669:3704   */\n      tag_121\n      jumpi\n        /* \"#utility.yul\":3684:3702   */\n      tag_122\n      tag_68\n      jump\t// in\n    tag_122:\n        /* \"#utility.yul\":3669:3704   */\n    tag_121:\n        /* \"#utility.yul\":3726:3727   */\n      dup3\n        /* \"#utility.yul\":3723:3724   */\n      dup3\n        /* \"#utility.yul\":3719:3728   */\n      div\n        /* \"#utility.yul\":3714:3728   */\n      swap1\n      pop\n        /* \"#utility.yul\":3549:3734   */\n      swap3\n      swap2\n      pop\n      pop\n      jump\t// out\n\n    auxdata: 0xa26469706673582212208f6b839f05dffce3a335fcc36a8f16dd29a0355411be18f29b06a98ed4a8562964736f6c634300081a0033\n}\n",
				"bytecode": {
					"linkReferences": {},
					"object": "6080604052620186a05f556103e86001555f600255348015601e575f80fd5b5061068f8061002c5f395ff3fe608060405234801561000f575f80fd5b506004361061007b575f3560e01c806369c855071161005957806369c85507146100fd5780638443c81d14610119578063892a0d64146101355780639305add5146101535761007b565b806310c51c1b1461007f5780633f275742146100af578063401b6caf146100df575b5f80fd5b61009960048036038101906100949190610464565b610171565b6040516100a691906104a7565b60405180910390f35b6100c960048036038101906100c49190610464565b6101b7565b6040516100d691906104a7565b60405180910390f35b6100e76101fd565b6040516100f491906104a7565b60405180910390f35b610117600480360381019061011291906104ea565b610203565b005b610133600480360381019061012e91906104ea565b610300565b005b61013d6103fb565b60405161014a91906104a7565b60405180910390f35b61015b610401565b60405161016891906104a7565b60405180910390f35b5f60045f8373ffffffffffffffffffffffffffffffffffffffff1673ffffffffffffffffffffffffffffffffffffffff1681526020019081526020015f20549050919050565b5f60035f8373ffffffffffffffffffffffffffffffffffffffff1673ffffffffffffffffffffffffffffffffffffffff1681526020019081526020015f20549050919050565b60015481565b805f54600254600154836102179190610555565b6102219190610596565b111561022b575f80fd5b5f6001548361023a9190610555565b90508060035f8673ffffffffffffffffffffffffffffffffffffffff1673ffffffffffffffffffffffffffffffffffffffff1681526020019081526020015f205f8282546102889190610596565b925050819055508260045f8673ffffffffffffffffffffffffffffffffffffffff1673ffffffffffffffffffffffffffffffffffffffff1681526020019081526020015f205f8282546102db9190610596565b925050819055508060025f8282546102f39190610596565b9250508190555050505050565b8060035f8473ffffffffffffffffffffffffffffffffffffffff1673ffffffffffffffffffffffffffffffffffffffff1681526020019081526020015f205f82825461034c91906105c9565b925050819055506103e860035f8473ffffffffffffffffffffffffffffffffffffffff1673ffffffffffffffffffffffffffffffffffffffff1681526020019081526020015f205461039e9190610629565b60045f8473ffffffffffffffffffffffffffffffffffffffff1673ffffffffffffffffffffffffffffffffffffffff1681526020019081526020015f20819055508060025f8282546103f091906105c9565b925050819055505050565b60025481565b5f5481565b5f80fd5b5f73ffffffffffffffffffffffffffffffffffffffff82169050919050565b5f6104338261040a565b9050919050565b61044381610429565b811461044d575f80fd5b50565b5f8135905061045e8161043a565b92915050565b5f6020828403121561047957610478610406565b5b5f61048684828501610450565b91505092915050565b5f819050919050565b6104a18161048f565b82525050565b5f6020820190506104ba5f830184610498565b92915050565b6104c98161048f565b81146104d3575f80fd5b50565b5f813590506104e4816104c0565b92915050565b5f8060408385031215610500576104ff610406565b5b5f61050d85828601610450565b925050602061051e858286016104d6565b9150509250929050565b7f4e487b71000000000000000000000000000000000000000000000000000000005f52601160045260245ffd5b5f61055f8261048f565b915061056a8361048f565b92508282026105788161048f565b9150828204841483151761058f5761058e610528565b5b5092915050565b5f6105a08261048f565b91506105ab8361048f565b92508282019050808211156105c3576105c2610528565b5b92915050565b5f6105d38261048f565b91506105de8361048f565b92508282039050818111156105f6576105f5610528565b5b92915050565b7f4e487b71000000000000000000000000000000000000000000000000000000005f52601260045260245ffd5b5f6106338261048f565b915061063e8361048f565b92508261064e5761064d6105fc565b5b82820490509291505056fea26469706673582212208f6b839f05dffce3a335fcc36a8f16dd29a0355411be18f29b06a98ed4a8562964736f6c634300081a0033",
					"opcodes": "PUSH1 0x80 PUSH1 0x40 MSTORE PUSH3 0x186A0 PUSH0 SSTORE PUSH2 0x3E8 PUSH1 0x1 SSTORE PUSH0 PUSH1 0x2 SSTORE CALLVALUE DUP1 ISZERO PUSH1 0x1E JUMPI PUSH0 DUP1 REVERT JUMPDEST POP PUSH2 0x68F DUP1 PUSH2 0x2C PUSH0 CODECOPY PUSH0 RETURN INVALID PUSH1 0x80 PUSH1 0x40 MSTORE CALLVALUE DUP1 ISZERO PUSH2 0xF JUMPI PUSH0 DUP1 REVERT JUMPDEST POP PUSH1 0x4 CALLDATASIZE LT PUSH2 0x7B JUMPI PUSH0 CALLDATALOAD PUSH1 0xE0 SHR DUP1 PUSH4 0x69C85507 GT PUSH2 0x59 JUMPI DUP1 PUSH4 0x69C85507 EQ PUSH2 0xFD JUMPI DUP1 PUSH4 0x8443C81D EQ PUSH2 0x119 JUMPI DUP1 PUSH4 0x892A0D64 EQ PUSH2 0x135 JUMPI DUP1 PUSH4 0x9305ADD5 EQ PUSH2 0x153 JUMPI PUSH2 0x7B JUMP JUMPDEST DUP1 PUSH4 0x10C51C1B EQ PUSH2 0x7F JUMPI DUP1 PUSH4 0x3F275742 EQ PUSH2 0xAF JUMPI DUP1 PUSH4 0x401B6CAF EQ PUSH2 0xDF JUMPI JUMPDEST PUSH0 DUP1 REVERT JUMPDEST PUSH2 0x99 PUSH1 0x4 DUP1 CALLDATASIZE SUB DUP2 ADD SWAP1 PUSH2 0x94 SWAP2 SWAP1 PUSH2 0x464 JUMP JUMPDEST PUSH2 0x171 JUMP JUMPDEST PUSH1 0x40 MLOAD PUSH2 0xA6 SWAP2 SWAP1 PUSH2 0x4A7 JUMP JUMPDEST PUSH1 0x40 MLOAD DUP1 SWAP2 SUB SWAP1 RETURN JUMPDEST PUSH2 0xC9 PUSH1 0x4 DUP1 CALLDATASIZE SUB DUP2 ADD SWAP1 PUSH2 0xC4 SWAP2 SWAP1 PUSH2 0x464 JUMP JUMPDEST PUSH2 0x1B7 JUMP JUMPDEST PUSH1 0x40 MLOAD PUSH2 0xD6 SWAP2 SWAP1 PUSH2 0x4A7 JUMP JUMPDEST PUSH1 0x40 MLOAD DUP1 SWAP2 SUB SWAP1 RETURN JUMPDEST PUSH2 0xE7 PUSH2 0x1FD JUMP JUMPDEST PUSH1 0x40 MLOAD PUSH2 0xF4 SWAP2 SWAP1 PUSH2 0x4A7 JUMP JUMPDEST PUSH1 0x40 MLOAD DUP1 SWAP2 SUB SWAP1 RETURN JUMPDEST PUSH2 0x117 PUSH1 0x4 DUP1 CALLDATASIZE SUB DUP2 ADD SWAP1 PUSH2 0x112 SWAP2 SWAP1 PUSH2 0x4EA JUMP JUMPDEST PUSH2 0x203 JUMP JUMPDEST STOP JUMPDEST PUSH2 0x133 PUSH1 0x4 DUP1 CALLDATASIZE SUB DUP2 ADD SWAP1 PUSH2 0x12E SWAP2 SWAP1 PUSH2 0x4EA JUMP JUMPDEST PUSH2 0x300 JUMP JUMPDEST STOP JUMPDEST PUSH2 0x13D PUSH2 0x3FB JUMP JUMPDEST PUSH1 0x40 MLOAD PUSH2 0x14A SWAP2 SWAP1 PUSH2 0x4A7 JUMP JUMPDEST PUSH1 0x40 MLOAD DUP1 SWAP2 SUB SWAP1 RETURN JUMPDEST PUSH2 0x15B PUSH2 0x401 JUMP JUMPDEST PUSH1 0x40 MLOAD PUSH2 0x168 SWAP2 SWAP1 PUSH2 0x4A7 JUMP JUMPDEST PUSH1 0x40 MLOAD DUP1 SWAP2 SUB SWAP1 RETURN JUMPDEST PUSH0 PUSH1 0x4 PUSH0 DUP4 PUSH20 0xFFFFFFFFFFFFFFFFFFFFFFFFFFFFFFFFFFFFFFFF AND PUSH20 0xFFFFFFFFFFFFFFFFFFFFFFFFFFFFFFFFFFFFFFFF AND DUP2 MSTORE PUSH1 0x20 ADD SWAP1 DUP2 MSTORE PUSH1 0x20 ADD PUSH0 KECCAK256 SLOAD SWAP1 POP SWAP2 SWAP1 POP JUMP JUMPDEST PUSH0 PUSH1 0x3 PUSH0 DUP4 PUSH20 0xFFFFFFFFFFFFFFFFFFFFFFFFFFFFFFFFFFFFFFFF AND PUSH20 0xFFFFFFFFFFFFFFFFFFFFFFFFFFFFFFFFFFFFFFFF AND DUP2 MSTORE PUSH1 0x20 ADD SWAP1 DUP2 MSTORE PUSH1 0x20 ADD PUSH0 KECCAK256 SLOAD SWAP1 POP SWAP2 SWAP1 POP JUMP JUMPDEST PUSH1 0x1 SLOAD DUP2 JUMP JUMPDEST DUP1 PUSH0 SLOAD PUSH1 0x2 SLOAD PUSH1 0x1 SLOAD DUP4 PUSH2 0x217 SWAP2 SWAP1 PUSH2 0x555 JUMP JUMPDEST PUSH2 0x221 SWAP2 SWAP1 PUSH2 0x596 JUMP JUMPDEST GT ISZERO PUSH2 0x22B JUMPI PUSH0 DUP1 REVERT JUMPDEST PUSH0 PUSH1 0x1 SLOAD DUP4 PUSH2 0x23A SWAP2 SWAP1 PUSH2 0x555 JUMP JUMPDEST SWAP1 POP DUP1 PUSH1 0x3 PUSH0 DUP7 PUSH20 0xFFFFFFFFFFFFFFFFFFFFFFFFFFFFFFFFFFFFFFFF AND PUSH20 0xFFFFFFFFFFFFFFFFFFFFFFFFFFFFFFFFFFFFFFFF AND DUP2 MSTORE PUSH1 0x20 ADD SWAP1 DUP2 MSTORE PUSH1 0x20 ADD PUSH0 KECCAK256 PUSH0 DUP3 DUP3 SLOAD PUSH2 0x288 SWAP2 SWAP1 PUSH2 0x596 JUMP JUMPDEST SWAP3 POP POP DUP2 SWAP1 SSTORE POP DUP3 PUSH1 0x4 PUSH0 DUP7 PUSH20 0xFFFFFFFFFFFFFFFFFFFFFFFFFFFFFFFFFFFFFFFF AND PUSH20 0xFFFFFFFFFFFFFFFFFFFFFFFFFFFFFFFFFFFFFFFF AND DUP2 MSTORE PUSH1 0x20 ADD SWAP1 DUP2 MSTORE PUSH1 0x20 ADD PUSH0 KECCAK256 PUSH0 DUP3 DUP3 SLOAD PUSH2 0x2DB SWAP2 SWAP1 PUSH2 0x596 JUMP JUMPDEST SWAP3 POP POP DUP2 SWAP1 SSTORE POP DUP1 PUSH1 0x2 PUSH0 DUP3 DUP3 SLOAD PUSH2 0x2F3 SWAP2 SWAP1 PUSH2 0x596 JUMP JUMPDEST SWAP3 POP POP DUP2 SWAP1 SSTORE POP POP POP POP POP JUMP JUMPDEST DUP1 PUSH1 0x3 PUSH0 DUP5 PUSH20 0xFFFFFFFFFFFFFFFFFFFFFFFFFFFFFFFFFFFFFFFF AND PUSH20 0xFFFFFFFFFFFFFFFFFFFFFFFFFFFFFFFFFFFFFFFF AND DUP2 MSTORE PUSH1 0x20 ADD SWAP1 DUP2 MSTORE PUSH1 0x20 ADD PUSH0 KECCAK256 PUSH0 DUP3 DUP3 SLOAD PUSH2 0x34C SWAP2 SWAP1 PUSH2 0x5C9 JUMP JUMPDEST SWAP3 POP POP DUP2 SWAP1 SSTORE POP PUSH2 0x3E8 PUSH1 0x3 PUSH0 DUP5 PUSH20 0xFFFFFFFFFFFFFFFFFFFFFFFFFFFFFFFFFFFFFFFF AND PUSH20 0xFFFFFFFFFFFFFFFFFFFFFFFFFFFFFFFFFFFFFFFF AND DUP2 MSTORE PUSH1 0x20 ADD SWAP1 DUP2 MSTORE PUSH1 0x20 ADD PUSH0 KECCAK256 SLOAD PUSH2 0x39E SWAP2 SWAP1 PUSH2 0x629 JUMP JUMPDEST PUSH1 0x4 PUSH0 DUP5 PUSH20 0xFFFFFFFFFFFFFFFFFFFFFFFFFFFFFFFFFFFFFFFF AND PUSH20 0xFFFFFFFFFFFFFFFFFFFFFFFFFFFFFFFFFFFFFFFF AND DUP2 MSTORE PUSH1 0x20 ADD SWAP1 DUP2 MSTORE PUSH1 0x20 ADD PUSH0 KECCAK256 DUP2 SWAP1 SSTORE POP DUP1 PUSH1 0x2 PUSH0 DUP3 DUP3 SLOAD PUSH2 0x3F0 SWAP2 SWAP1 PUSH2 0x5C9 JUMP JUMPDEST SWAP3 POP POP DUP2 SWAP1 SSTORE POP POP POP JUMP JUMPDEST PUSH1 0x2 SLOAD DUP2 JUMP JUMPDEST PUSH0 SLOAD DUP2 JUMP JUMPDEST PUSH0 DUP1 REVERT JUMPDEST PUSH0 PUSH20 0xFFFFFFFFFFFFFFFFFFFFFFFFFFFFFFFFFFFFFFFF DUP3 AND SWAP1 POP SWAP2 SWAP1 POP JUMP JUMPDEST PUSH0 PUSH2 0x433 DUP3 PUSH2 0x40A JUMP JUMPDEST SWAP1 POP SWAP2 SWAP1 POP JUMP JUMPDEST PUSH2 0x443 DUP2 PUSH2 0x429 JUMP JUMPDEST DUP2 EQ PUSH2 0x44D JUMPI PUSH0 DUP1 REVERT JUMPDEST POP JUMP JUMPDEST PUSH0 DUP2 CALLDATALOAD SWAP1 POP PUSH2 0x45E DUP2 PUSH2 0x43A JUMP JUMPDEST SWAP3 SWAP2 POP POP JUMP JUMPDEST PUSH0 PUSH1 0x20 DUP3 DUP5 SUB SLT ISZERO PUSH2 0x479 JUMPI PUSH2 0x478 PUSH2 0x406 JUMP JUMPDEST JUMPDEST PUSH0 PUSH2 0x486 DUP5 DUP3 DUP6 ADD PUSH2 0x450 JUMP JUMPDEST SWAP2 POP POP SWAP3 SWAP2 POP POP JUMP JUMPDEST PUSH0 DUP2 SWAP1 POP SWAP2 SWAP1 POP JUMP JUMPDEST PUSH2 0x4A1 DUP2 PUSH2 0x48F JUMP JUMPDEST DUP3 MSTORE POP POP JUMP JUMPDEST PUSH0 PUSH1 0x20 DUP3 ADD SWAP1 POP PUSH2 0x4BA PUSH0 DUP4 ADD DUP5 PUSH2 0x498 JUMP JUMPDEST SWAP3 SWAP2 POP POP JUMP JUMPDEST PUSH2 0x4C9 DUP2 PUSH2 0x48F JUMP JUMPDEST DUP2 EQ PUSH2 0x4D3 JUMPI PUSH0 DUP1 REVERT JUMPDEST POP JUMP JUMPDEST PUSH0 DUP2 CALLDATALOAD SWAP1 POP PUSH2 0x4E4 DUP2 PUSH2 0x4C0 JUMP JUMPDEST SWAP3 SWAP2 POP POP JUMP JUMPDEST PUSH0 DUP1 PUSH1 0x40 DUP4 DUP6 SUB SLT ISZERO PUSH2 0x500 JUMPI PUSH2 0x4FF PUSH2 0x406 JUMP JUMPDEST JUMPDEST PUSH0 PUSH2 0x50D DUP6 DUP3 DUP7 ADD PUSH2 0x450 JUMP JUMPDEST SWAP3 POP POP PUSH1 0x20 PUSH2 0x51E DUP6 DUP3 DUP7 ADD PUSH2 0x4D6 JUMP JUMPDEST SWAP2 POP POP SWAP3 POP SWAP3 SWAP1 POP JUMP JUMPDEST PUSH32 0x4E487B7100000000000000000000000000000000000000000000000000000000 PUSH0 MSTORE PUSH1 0x11 PUSH1 0x4 MSTORE PUSH1 0x24 PUSH0 REVERT JUMPDEST PUSH0 PUSH2 0x55F DUP3 PUSH2 0x48F JUMP JUMPDEST SWAP2 POP PUSH2 0x56A DUP4 PUSH2 0x48F JUMP JUMPDEST SWAP3 POP DUP3 DUP3 MUL PUSH2 0x578 DUP2 PUSH2 0x48F JUMP JUMPDEST SWAP2 POP DUP3 DUP3 DIV DUP5 EQ DUP4 ISZERO OR PUSH2 0x58F JUMPI PUSH2 0x58E PUSH2 0x528 JUMP JUMPDEST JUMPDEST POP SWAP3 SWAP2 POP POP JUMP JUMPDEST PUSH0 PUSH2 0x5A0 DUP3 PUSH2 0x48F JUMP JUMPDEST SWAP2 POP PUSH2 0x5AB DUP4 PUSH2 0x48F JUMP JUMPDEST SWAP3 POP DUP3 DUP3 ADD SWAP1 POP DUP1 DUP3 GT ISZERO PUSH2 0x5C3 JUMPI PUSH2 0x5C2 PUSH2 0x528 JUMP JUMPDEST JUMPDEST SWAP3 SWAP2 POP POP JUMP JUMPDEST PUSH0 PUSH2 0x5D3 DUP3 PUSH2 0x48F JUMP JUMPDEST SWAP2 POP PUSH2 0x5DE DUP4 PUSH2 0x48F JUMP JUMPDEST SWAP3 POP DUP3 DUP3 SUB SWAP1 POP DUP2 DUP2 GT ISZERO PUSH2 0x5F6 JUMPI PUSH2 0x5F5 PUSH2 0x528 JUMP JUMPDEST JUMPDEST SWAP3 SWAP2 POP POP JUMP JUMPDEST PUSH32 0x4E487B7100000000000000000000000000000000000000000000000000000000 PUSH0 MSTORE PUSH1 0x12 PUSH1 0x4 MSTORE PUSH1 0x24 PUSH0 REVERT JUMPDEST PUSH0 PUSH2 0x633 DUP3 PUSH2 0x48F JUMP JUMPDEST SWAP2 POP PUSH2 0x63E DUP4 PUSH2 0x48F JUMP JUMPDEST SWAP3 POP DUP3 PUSH2 0x64E JUMPI PUSH2 0x64D PUSH2 0x5FC JUMP JUMPDEST JUMPDEST DUP3 DUP3 DIV SWAP1 POP SWAP3 SWAP2 POP POP JUMP INVALID LOG2 PUSH5 0x6970667358 0x22 SLT KECCAK256 DUP16 PUSH12 0x839F05DFFCE3A335FCC36A8F AND 0xDD 0x29 LOG0 CALLDATALOAD SLOAD GT 0xBE XOR CALLCODE SWAP12 MOD 0xA9 DUP15 0xD4 0xA8 JUMP 0x29 PUSH5 0x736F6C6343 STOP ADDMOD BYTE STOP CALLER "
				},
				"gasEstimates": {
					"creation": {
						"codeDepositCost": "335800",
						"executionCost": "49588",
						"totalCost": "385388"
					},
					"external": {
						"buy_assetv(address,uint256)": "infinite",
						"equity_in_assetv(address)": "2852",
						"equity_in_usd(address)": "2830",
						"max_assetv()": "2490",
						"sell_assetv(address,uint256)": "infinite",
						"total_assetv_bought()": "2469",
						"usd_to_assetv()": "2470"
					}
				},
				"methodIdentifiers": {
					"buy_assetv(address,uint256)": "69c85507",
					"equity_in_assetv(address)": "3f275742",
					"equity_in_usd(address)": "10c51c1b",
					"max_assetv()": "9305add5",
					"sell_assetv(address,uint256)": "8443c81d",
					"total_assetv_bought()": "892a0d64",
					"usd_to_assetv()": "401b6caf"
				}
			},
			"storageLayout": {
				"storage": [
					{
						"astId": 4,
						"contract": "assetv_ico.sol:assetv_ico",
						"label": "max_assetv",
						"offset": 0,
						"slot": "0",
						"type": "t_uint256"
					},
					{
						"astId": 7,
						"contract": "assetv_ico.sol:assetv_ico",
						"label": "usd_to_assetv",
						"offset": 0,
						"slot": "1",
						"type": "t_uint256"
					},
					{
						"astId": 10,
						"contract": "assetv_ico.sol:assetv_ico",
						"label": "total_assetv_bought",
						"offset": 0,
						"slot": "2",
						"type": "t_uint256"
					},
					{
						"astId": 14,
						"contract": "assetv_ico.sol:assetv_ico",
						"label": "equity_assetv",
						"offset": 0,
						"slot": "3",
						"type": "t_mapping(t_address,t_uint256)"
					},
					{
						"astId": 18,
						"contract": "assetv_ico.sol:assetv_ico",
						"label": "equity_usd",
						"offset": 0,
						"slot": "4",
						"type": "t_mapping(t_address,t_uint256)"
					}
				],
				"types": {
					"t_address": {
						"encoding": "inplace",
						"label": "address",
						"numberOfBytes": "20"
					},
					"t_mapping(t_address,t_uint256)": {
						"encoding": "mapping",
						"key": "t_address",
						"label": "mapping(address => uint256)",
						"numberOfBytes": "32",
						"value": "t_uint256"
					},
					"t_uint256": {
						"encoding": "inplace",
						"label": "uint256",
						"numberOfBytes": "32"
					}
				}
			},
			"userdoc": {
				"kind": "user",
				"methods": {},
				"version": 1
			}
		}
	}
}