{
	"assetv_ico.sol": {
		"assetv_ico": {
			"abi": [
				{
					"inputs": [],
					"name": "max_assetv",
					"outputs": [
						{
							"internalType": "uint256",
							"name": "",
							"type": "uint256"
						}
					],
					"stateMutability": "view",
					"type": "function"
				},
				{
					"inputs": [],
					"name": "total_assetv_bought",
					"outputs": [
						{
							"internalType": "uint256",
							"name": "",
							"type": "uint256"
						}
					],
					"stateMutability": "view",
					"type": "function"
				},
				{
					"inputs": [],
					"name": "usd_to_assetv",
					"outputs": [
						{
							"internalType": "uint256",
							"name": "",
							"type": "uint256"
						}
					],
					"stateMutability": "view",
					"type": "function"
				}
			],
			"devdoc": {
				"kind": "dev",
				"methods": {},
				"version": 1
			},
			"evm": {
				"assembly": "    /* \"assetv_ico.sol\":82:355  contract assetv_ico {... */\n  mstore(0x40, 0x80)\n    /* \"assetv_ico.sol\":172:178  100000 */\n  0x0186a0\n    /* \"assetv_ico.sol\":147:178  uint public max_assetv = 100000 */\n  0x00\n  sstore\n    /* \"assetv_ico.sol\":250:254  1000 */\n  0x03e8\n    /* \"assetv_ico.sol\":222:254  uint public usd_to_assetv = 1000 */\n  0x01\n  sstore\n    /* \"assetv_ico.sol\":350:351  0 */\n  0x00\n    /* \"assetv_ico.sol\":317:351  uint public total_assetv_bought =0 */\n  0x02\n  sstore\n    /* \"assetv_ico.sol\":82:355  contract assetv_ico {... */\n  callvalue\n  dup1\n  iszero\n  tag_1\n  jumpi\n  0x00\n  dup1\n  revert\ntag_1:\n  pop\n  dataSize(sub_0)\n  dup1\n  dataOffset(sub_0)\n  0x00\n  codecopy\n  0x00\n  return\nstop\n\nsub_0: assembly {\n        /* \"assetv_ico.sol\":82:355  contract assetv_ico {... */\n      mstore(0x40, 0x80)\n      callvalue\n      dup1\n      iszero\n      tag_1\n      jumpi\n      0x00\n      dup1\n      revert\n    tag_1:\n      pop\n      jumpi(tag_2, lt(calldatasize, 0x04))\n      shr(0xe0, calldataload(0x00))\n      dup1\n      0x401b6caf\n      eq\n      tag_3\n      jumpi\n      dup1\n      0x892a0d64\n      eq\n      tag_4\n      jumpi\n      dup1\n      0x9305add5\n      eq\n      tag_5\n      jumpi\n    tag_2:\n      0x00\n      dup1\n      revert\n        /* \"assetv_ico.sol\":222:254  uint public usd_to_assetv = 1000 */\n    tag_3:\n      tag_6\n      tag_7\n      jump\t// in\n    tag_6:\n      mload(0x40)\n      tag_8\n      swap2\n      swap1\n      tag_9\n      jump\t// in\n    tag_8:\n      mload(0x40)\n      dup1\n      swap2\n      sub\n      swap1\n      return\n        /* \"assetv_ico.sol\":317:351  uint public total_assetv_bought =0 */\n    tag_4:\n      tag_10\n      tag_11\n      jump\t// in\n    tag_10:\n      mload(0x40)\n      tag_12\n      swap2\n      swap1\n      tag_9\n      jump\t// in\n    tag_12:\n      mload(0x40)\n      dup1\n      swap2\n      sub\n      swap1\n      return\n        /* \"assetv_ico.sol\":147:178  uint public max_assetv = 100000 */\n    tag_5:\n      tag_13\n      tag_14\n      jump\t// in\n    tag_13:\n      mload(0x40)\n      tag_15\n      swap2\n      swap1\n      tag_9\n      jump\t// in\n    tag_15:\n      mload(0x40)\n      dup1\n      swap2\n      sub\n      swap1\n      return\n        /* \"assetv_ico.sol\":222:254  uint public usd_to_assetv = 1000 */\n    tag_7:\n      sload(0x01)\n      dup2\n      jump\t// out\n        /* \"assetv_ico.sol\":317:351  uint public total_assetv_bought =0 */\n    tag_11:\n      sload(0x02)\n      dup2\n      jump\t// out\n        /* \"assetv_ico.sol\":147:178  uint public max_assetv = 100000 */\n    tag_14:\n      sload(0x00)\n      dup2\n      jump\t// out\n        /* \"#utility.yul\":7:84   */\n    tag_16:\n        /* \"#utility.yul\":44:51   */\n      0x00\n        /* \"#utility.yul\":73:78   */\n      dup2\n        /* \"#utility.yul\":62:78   */\n      swap1\n      pop\n        /* \"#utility.yul\":7:84   */\n      swap2\n      swap1\n      pop\n      jump\t// out\n        /* \"#utility.yul\":90:208   */\n    tag_17:\n        /* \"#utility.yul\":177:201   */\n      tag_21\n        /* \"#utility.yul\":195:200   */\n      dup2\n        /* \"#utility.yul\":177:201   */\n      tag_16\n      jump\t// in\n    tag_21:\n        /* \"#utility.yul\":172:175   */\n      dup3\n        /* \"#utility.yul\":165:202   */\n      mstore\n        /* \"#utility.yul\":90:208   */\n      pop\n      pop\n      jump\t// out\n        /* \"#utility.yul\":214:436   */\n    tag_9:\n        /* \"#utility.yul\":307:311   */\n      0x00\n        /* \"#utility.yul\":345:347   */\n      0x20\n        /* \"#utility.yul\":334:343   */\n      dup3\n        /* \"#utility.yul\":330:348   */\n      add\n        /* \"#utility.yul\":322:348   */\n      swap1\n      pop\n        /* \"#utility.yul\":358:429   */\n      tag_23\n        /* \"#utility.yul\":426:427   */\n      0x00\n        /* \"#utility.yul\":415:424   */\n      dup4\n        /* \"#utility.yul\":411:428   */\n      add\n        /* \"#utility.yul\":402:408   */\n      dup5\n        /* \"#utility.yul\":358:429   */\n      tag_17\n      jump\t// in\n    tag_23:\n        /* \"#utility.yul\":214:436   */\n      swap3\n      swap2\n      pop\n      pop\n      jump\t// out\n\n    auxdata: 0xa26469706673582212200cff83a7548d5bc8e3adbf3f8fa71444c78375dcb6c931122d7379662da1d74a64736f6c634300081a0033\n}\n",
				"bytecode": {
					"linkReferences": {},
					"object": "6080604052620186a05f556103e86001555f600255348015601e575f80fd5b506101008061002c5f395ff3fe6080604052348015600e575f80fd5b5060043610603a575f3560e01c8063401b6caf14603e578063892a0d641460585780639305add5146072575b5f80fd5b6044608c565b604051604f919060b3565b60405180910390f35b605e6092565b6040516069919060b3565b60405180910390f35b60786098565b6040516083919060b3565b60405180910390f35b60015481565b60025481565b5f5481565b5f819050919050565b60ad81609d565b82525050565b5f60208201905060c45f83018460a6565b9291505056fea26469706673582212200cff83a7548d5bc8e3adbf3f8fa71444c78375dcb6c931122d7379662da1d74a64736f6c634300081a0033",
					"opcodes": "PUSH1 0x80 PUSH1 0x40 MSTORE PUSH3 0x186A0 PUSH0 SSTORE PUSH2 0x3E8 PUSH1 0x1 SSTORE PUSH0 PUSH1 0x2 SSTORE CALLVALUE DUP1 ISZERO PUSH1 0x1E JUMPI PUSH0 DUP1 REVERT JUMPDEST POP PUSH2 0x100 DUP1 PUSH2 0x2C PUSH0 CODECOPY PUSH0 RETURN INVALID PUSH1 0x80 PUSH1 0x40 MSTORE CALLVALUE DUP1 ISZERO PUSH1 0xE JUMPI PUSH0 DUP1 REVERT JUMPDEST POP PUSH1 0x4 CALLDATASIZE LT PUSH1 0x3A JUMPI PUSH0 CALLDATALOAD PUSH1 0xE0 SHR DUP1 PUSH4 0x401B6CAF EQ PUSH1 0x3E JUMPI DUP1 PUSH4 0x892A0D64 EQ PUSH1 0x58 JUMPI DUP1 PUSH4 0x9305ADD5 EQ PUSH1 0x72 JUMPI JUMPDEST PUSH0 DUP1 REVERT JUMPDEST PUSH1 0x44 PUSH1 0x8C JUMP JUMPDEST PUSH1 0x40 MLOAD PUSH1 0x4F SWAP2 SWAP1 PUSH1 0xB3 JUMP JUMPDEST PUSH1 0x40 MLOAD DUP1 SWAP2 SUB SWAP1 RETURN JUMPDEST PUSH1 0x5E PUSH1 0x92 JUMP JUMPDEST PUSH1 0x40 MLOAD PUSH1 0x69 SWAP2 SWAP1 PUSH1 0xB3 JUMP JUMPDEST PUSH1 0x40 MLOAD DUP1 SWAP2 SUB SWAP1 RETURN JUMPDEST PUSH1 0x78 PUSH1 0x98 JUMP JUMPDEST PUSH1 0x40 MLOAD PUSH1 0x83 SWAP2 SWAP1 PUSH1 0xB3 JUMP JUMPDEST PUSH1 0x40 MLOAD DUP1 SWAP2 SUB SWAP1 RETURN JUMPDEST PUSH1 0x1 SLOAD DUP2 JUMP JUMPDEST PUSH1 0x2 SLOAD DUP2 JUMP JUMPDEST PUSH0 SLOAD DUP2 JUMP JUMPDEST PUSH0 DUP2 SWAP1 POP SWAP2 SWAP1 POP JUMP JUMPDEST PUSH1 0xAD DUP2 PUSH1 0x9D JUMP JUMPDEST DUP3 MSTORE POP POP JUMP JUMPDEST PUSH0 PUSH1 0x20 DUP3 ADD SWAP1 POP PUSH1 0xC4 PUSH0 DUP4 ADD DUP5 PUSH1 0xA6 JUMP JUMPDEST SWAP3 SWAP2 POP POP JUMP INVALID LOG2 PUSH5 0x6970667358 0x22 SLT KECCAK256 0xC SELFDESTRUCT DUP4 0xA7 SLOAD DUP14 JUMPDEST 0xC8 0xE3 0xAD 0xBF EXTCODEHASH DUP16 0xA7 EQ PREVRANDAO 0xC7 DUP4 PUSH22 0xDCB6C931122D7379662DA1D74A64736F6C634300081A STOP CALLER "
				},
				"gasEstimates": {
					"creation": {
						"codeDepositCost": "51200",
						"executionCost": "49313",
						"totalCost": "100513"
					},
					"external": {
						"max_assetv()": "2446",
						"total_assetv_bought()": "2425",
						"usd_to_assetv()": "2403"
					}
				},
				"methodIdentifiers": {
					"max_assetv()": "9305add5",
					"total_assetv_bought()": "892a0d64",
					"usd_to_assetv()": "401b6caf"
				}
			},
			"storageLayout": {
				"storage": [
					{
						"astId": 4,
						"contract": "assetv_ico.sol:assetv_ico",
						"label": "max_assetv",
						"offset": 0,
						"slot": "0",
						"type": "t_uint256"
					},
					{
						"astId": 7,
						"contract": "assetv_ico.sol:assetv_ico",
						"label": "usd_to_assetv",
						"offset": 0,
						"slot": "1",
						"type": "t_uint256"
					},
					{
						"astId": 10,
						"contract": "assetv_ico.sol:assetv_ico",
						"label": "total_assetv_bought",
						"offset": 0,
						"slot": "2",
						"type": "t_uint256"
					}
				],
				"types": {
					"t_uint256": {
						"encoding": "inplace",
						"label": "uint256",
						"numberOfBytes": "32"
					}
				}
			},
			"userdoc": {
				"kind": "user",
				"methods": {},
				"version": 1
			}
		}
	}
}