{
	"data": {
		"bytecode": {
			"linkReferences": {},
			"object": "6080604052620186a05f556103e86001555f600255348015601e575f80fd5b5061068f8061002c5f395ff3fe608060405234801561000f575f80fd5b506004361061007b575f3560e01c806369c855071161005957806369c85507146100fd5780638443c81d14610119578063892a0d64146101355780639305add5146101535761007b565b806310c51c1b1461007f5780633f275742146100af578063401b6caf146100df575b5f80fd5b61009960048036038101906100949190610464565b610171565b6040516100a691906104a7565b60405180910390f35b6100c960048036038101906100c49190610464565b6101b7565b6040516100d691906104a7565b60405180910390f35b6100e76101fd565b6040516100f491906104a7565b60405180910390f35b610117600480360381019061011291906104ea565b610203565b005b610133600480360381019061012e91906104ea565b610300565b005b61013d6103fb565b60405161014a91906104a7565b60405180910390f35b61015b610401565b60405161016891906104a7565b60405180910390f35b5f60045f8373ffffffffffffffffffffffffffffffffffffffff1673ffffffffffffffffffffffffffffffffffffffff1681526020019081526020015f20549050919050565b5f60035f8373ffffffffffffffffffffffffffffffffffffffff1673ffffffffffffffffffffffffffffffffffffffff1681526020019081526020015f20549050919050565b60015481565b805f54600254600154836102179190610555565b6102219190610596565b111561022b575f80fd5b5f6001548361023a9190610555565b90508060035f8673ffffffffffffffffffffffffffffffffffffffff1673ffffffffffffffffffffffffffffffffffffffff1681526020019081526020015f205f8282546102889190610596565b925050819055508260045f8673ffffffffffffffffffffffffffffffffffffffff1673ffffffffffffffffffffffffffffffffffffffff1681526020019081526020015f205f8282546102db9190610596565b925050819055508060025f8282546102f39190610596565b9250508190555050505050565b8060035f8473ffffffffffffffffffffffffffffffffffffffff1673ffffffffffffffffffffffffffffffffffffffff1681526020019081526020015f205f82825461034c91906105c9565b925050819055506103e860035f8473ffffffffffffffffffffffffffffffffffffffff1673ffffffffffffffffffffffffffffffffffffffff1681526020019081526020015f205461039e9190610629565b60045f8473ffffffffffffffffffffffffffffffffffffffff1673ffffffffffffffffffffffffffffffffffffffff1681526020019081526020015f20819055508060025f8282546103f091906105c9565b925050819055505050565b60025481565b5f5481565b5f80fd5b5f73ffffffffffffffffffffffffffffffffffffffff82169050919050565b5f6104338261040a565b9050919050565b61044381610429565b811461044d575f80fd5b50565b5f8135905061045e8161043a565b92915050565b5f6020828403121561047957610478610406565b5b5f61048684828501610450565b91505092915050565b5f819050919050565b6104a18161048f565b82525050565b5f6020820190506104ba5f830184610498565b92915050565b6104c98161048f565b81146104d3575f80fd5b50565b5f813590506104e4816104c0565b92915050565b5f8060408385031215610500576104ff610406565b5b5f61050d85828601610450565b925050602061051e858286016104d6565b9150509250929050565b7f4e487b71000000000000000000000000000000000000000000000000000000005f52601160045260245ffd5b5f61055f8261048f565b915061056a8361048f565b92508282026105788161048f565b9150828204841483151761058f5761058e610528565b5b5092915050565b5f6105a08261048f565b91506105ab8361048f565b92508282019050808211156105c3576105c2610528565b5b92915050565b5f6105d38261048f565b91506105de8361048f565b92508282039050818111156105f6576105f5610528565b5b92915050565b7f4e487b71000000000000000000000000000000000000000000000000000000005f52601260045260245ffd5b5f6106338261048f565b915061063e8361048f565b92508261064e5761064d6105fc565b5b82820490509291505056fea264697066735822122031c223161682bd7a0a97f52bfe9230ab048a25d2d953739febcfeda94991d3be64736f6c634300081a0033",
			"opcodes": "PUSH1 0x80 PUSH1 0x40 MSTORE PUSH3 0x186A0 PUSH0 SSTORE PUSH2 0x3E8 PUSH1 0x1 SSTORE PUSH0 PUSH1 0x2 SSTORE CALLVALUE DUP1 ISZERO PUSH1 0x1E JUMPI PUSH0 DUP1 REVERT JUMPDEST POP PUSH2 0x68F DUP1 PUSH2 0x2C PUSH0 CODECOPY PUSH0 RETURN INVALID PUSH1 0x80 PUSH1 0x40 MSTORE CALLVALUE DUP1 ISZERO PUSH2 0xF JUMPI PUSH0 DUP1 REVERT JUMPDEST POP PUSH1 0x4 CALLDATASIZE LT PUSH2 0x7B JUMPI PUSH0 CALLDATALOAD PUSH1 0xE0 SHR DUP1 PUSH4 0x69C85507 GT PUSH2 0x59 JUMPI DUP1 PUSH4 0x69C85507 EQ PUSH2 0xFD JUMPI DUP1 PUSH4 0x8443C81D EQ PUSH2 0x119 JUMPI DUP1 PUSH4 0x892A0D64 EQ PUSH2 0x135 JUMPI DUP1 PUSH4 0x9305ADD5 EQ PUSH2 0x153 JUMPI PUSH2 0x7B JUMP JUMPDEST DUP1 PUSH4 0x10C51C1B EQ PUSH2 0x7F JUMPI DUP1 PUSH4 0x3F275742 EQ PUSH2 0xAF JUMPI DUP1 PUSH4 0x401B6CAF EQ PUSH2 0xDF JUMPI JUMPDEST PUSH0 DUP1 REVERT JUMPDEST PUSH2 0x99 PUSH1 0x4 DUP1 CALLDATASIZE SUB DUP2 ADD SWAP1 PUSH2 0x94 SWAP2 SWAP1 PUSH2 0x464 JUMP JUMPDEST PUSH2 0x171 JUMP JUMPDEST PUSH1 0x40 MLOAD PUSH2 0xA6 SWAP2 SWAP1 PUSH2 0x4A7 JUMP JUMPDEST PUSH1 0x40 MLOAD DUP1 SWAP2 SUB SWAP1 RETURN JUMPDEST PUSH2 0xC9 PUSH1 0x4 DUP1 CALLDATASIZE SUB DUP2 ADD SWAP1 PUSH2 0xC4 SWAP2 SWAP1 PUSH2 0x464 JUMP JUMPDEST PUSH2 0x1B7 JUMP JUMPDEST PUSH1 0x40 MLOAD PUSH2 0xD6 SWAP2 SWAP1 PUSH2 0x4A7 JUMP JUMPDEST PUSH1 0x40 MLOAD DUP1 SWAP2 SUB SWAP1 RETURN JUMPDEST PUSH2 0xE7 PUSH2 0x1FD JUMP JUMPDEST PUSH1 0x40 MLOAD PUSH2 0xF4 SWAP2 SWAP1 PUSH2 0x4A7 JUMP JUMPDEST PUSH1 0x40 MLOAD DUP1 SWAP2 SUB SWAP1 RETURN JUMPDEST PUSH2 0x117 PUSH1 0x4 DUP1 CALLDATASIZE SUB DUP2 ADD SWAP1 PUSH2 0x112 SWAP2 SWAP1 PUSH2 0x4EA JUMP JUMPDEST PUSH2 0x203 JUMP JUMPDEST STOP JUMPDEST PUSH2 0x133 PUSH1 0x4 DUP1 CALLDATASIZE SUB DUP2 ADD SWAP1 PUSH2 0x12E SWAP2 SWAP1 PUSH2 0x4EA JUMP JUMPDEST PUSH2 0x300 JUMP JUMPDEST STOP JUMPDEST PUSH2 0x13D PUSH2 0x3FB JUMP JUMPDEST PUSH1 0x40 MLOAD PUSH2 0x14A SWAP2 SWAP1 PUSH2 0x4A7 JUMP JUMPDEST PUSH1 0x40 MLOAD DUP1 SWAP2 SUB SWAP1 RETURN JUMPDEST PUSH2 0x15B PUSH2 0x401 JUMP JUMPDEST PUSH1 0x40 MLOAD PUSH2 0x168 SWAP2 SWAP1 PUSH2 0x4A7 JUMP JUMPDEST PUSH1 0x40 MLOAD DUP1 SWAP2 SUB SWAP1 RETURN JUMPDEST PUSH0 PUSH1 0x4 PUSH0 DUP4 PUSH20 0xFFFFFFFFFFFFFFFFFFFFFFFFFFFFFFFFFFFFFFFF AND PUSH20 0xFFFFFFFFFFFFFFFFFFFFFFFFFFFFFFFFFFFFFFFF AND DUP2 MSTORE PUSH1 0x20 ADD SWAP1 DUP2 MSTORE PUSH1 0x20 ADD PUSH0 KECCAK256 SLOAD SWAP1 POP SWAP2 SWAP1 POP JUMP JUMPDEST PUSH0 PUSH1 0x3 PUSH0 DUP4 PUSH20 0xFFFFFFFFFFFFFFFFFFFFFFFFFFFFFFFFFFFFFFFF AND PUSH20 0xFFFFFFFFFFFFFFFFFFFFFFFFFFFFFFFFFFFFFFFF AND DUP2 MSTORE PUSH1 0x20 ADD SWAP1 DUP2 MSTORE PUSH1 0x20 ADD PUSH0 KECCAK256 SLOAD SWAP1 POP SWAP2 SWAP1 POP JUMP JUMPDEST PUSH1 0x1 SLOAD DUP2 JUMP JUMPDEST DUP1 PUSH0 SLOAD PUSH1 0x2 SLOAD PUSH1 0x1 SLOAD DUP4 PUSH2 0x217 SWAP2 SWAP1 PUSH2 0x555 JUMP JUMPDEST PUSH2 0x221 SWAP2 SWAP1 PUSH2 0x596 JUMP JUMPDEST GT ISZERO PUSH2 0x22B JUMPI PUSH0 DUP1 REVERT JUMPDEST PUSH0 PUSH1 0x1 SLOAD DUP4 PUSH2 0x23A SWAP2 SWAP1 PUSH2 0x555 JUMP JUMPDEST SWAP1 POP DUP1 PUSH1 0x3 PUSH0 DUP7 PUSH20 0xFFFFFFFFFFFFFFFFFFFFFFFFFFFFFFFFFFFFFFFF AND PUSH20 0xFFFFFFFFFFFFFFFFFFFFFFFFFFFFFFFFFFFFFFFF AND DUP2 MSTORE PUSH1 0x20 ADD SWAP1 DUP2 MSTORE PUSH1 0x20 ADD PUSH0 KECCAK256 PUSH0 DUP3 DUP3 SLOAD PUSH2 0x288 SWAP2 SWAP1 PUSH2 0x596 JUMP JUMPDEST SWAP3 POP POP DUP2 SWAP1 SSTORE POP DUP3 PUSH1 0x4 PUSH0 DUP7 PUSH20 0xFFFFFFFFFFFFFFFFFFFFFFFFFFFFFFFFFFFFFFFF AND PUSH20 0xFFFFFFFFFFFFFFFFFFFFFFFFFFFFFFFFFFFFFFFF AND DUP2 MSTORE PUSH1 0x20 ADD SWAP1 DUP2 MSTORE PUSH1 0x20 ADD PUSH0 KECCAK256 PUSH0 DUP3 DUP3 SLOAD PUSH2 0x2DB SWAP2 SWAP1 PUSH2 0x596 JUMP JUMPDEST SWAP3 POP POP DUP2 SWAP1 SSTORE POP DUP1 PUSH1 0x2 PUSH0 DUP3 DUP3 SLOAD PUSH2 0x2F3 SWAP2 SWAP1 PUSH2 0x596 JUMP JUMPDEST SWAP3 POP POP DUP2 SWAP1 SSTORE POP POP POP POP POP JUMP JUMPDEST DUP1 PUSH1 0x3 PUSH0 DUP5 PUSH20 0xFFFFFFFFFFFFFFFFFFFFFFFFFFFFFFFFFFFFFFFF AND PUSH20 0xFFFFFFFFFFFFFFFFFFFFFFFFFFFFFFFFFFFFFFFF AND DUP2 MSTORE PUSH1 0x20 ADD SWAP1 DUP2 MSTORE PUSH1 0x20 ADD PUSH0 KECCAK256 PUSH0 DUP3 DUP3 SLOAD PUSH2 0x34C SWAP2 SWAP1 PUSH2 0x5C9 JUMP JUMPDEST SWAP3 POP POP DUP2 SWAP1 SSTORE POP PUSH2 0x3E8 PUSH1 0x3 PUSH0 DUP5 PUSH20 0xFFFFFFFFFFFFFFFFFFFFFFFFFFFFFFFFFFFFFFFF AND PUSH20 0xFFFFFFFFFFFFFFFFFFFFFFFFFFFFFFFFFFFFFFFF AND DUP2 MSTORE PUSH1 0x20 ADD SWAP1 DUP2 MSTORE PUSH1 0x20 ADD PUSH0 KECCAK256 SLOAD PUSH2 0x39E SWAP2 SWAP1 PUSH2 0x629 JUMP JUMPDEST PUSH1 0x4 PUSH0 DUP5 PUSH20 0xFFFFFFFFFFFFFFFFFFFFFFFFFFFFFFFFFFFFFFFF AND PUSH20 0xFFFFFFFFFFFFFFFFFFFFFFFFFFFFFFFFFFFFFFFF AND DUP2 MSTORE PUSH1 0x20 ADD SWAP1 DUP2 MSTORE PUSH1 0x20 ADD PUSH0 KECCAK256 DUP2 SWAP1 SSTORE POP DUP1 PUSH1 0x2 PUSH0 DUP3 DUP3 SLOAD PUSH2 0x3F0 SWAP2 SWAP1 PUSH2 0x5C9 JUMP JUMPDEST SWAP3 POP POP DUP2 SWAP1 SSTORE POP POP POP JUMP JUMPDEST PUSH1 0x2 SLOAD DUP2 JUMP JUMPDEST PUSH0 SLOAD DUP2 JUMP JUMPDEST PUSH0 DUP1 REVERT JUMPDEST PUSH0 PUSH20 0xFFFFFFFFFFFFFFFFFFFFFFFFFFFFFFFFFFFFFFFF DUP3 AND SWAP1 POP SWAP2 SWAP1 POP JUMP JUMPDEST PUSH0 PUSH2 0x433 DUP3 PUSH2 0x40A JUMP JUMPDEST SWAP1 POP SWAP2 SWAP1 POP JUMP JUMPDEST PUSH2 0x443 DUP2 PUSH2 0x429 JUMP JUMPDEST DUP2 EQ PUSH2 0x44D JUMPI PUSH0 DUP1 REVERT JUMPDEST POP JUMP JUMPDEST PUSH0 DUP2 CALLDATALOAD SWAP1 POP PUSH2 0x45E DUP2 PUSH2 0x43A JUMP JUMPDEST SWAP3 SWAP2 POP POP JUMP JUMPDEST PUSH0 PUSH1 0x20 DUP3 DUP5 SUB SLT ISZERO PUSH2 0x479 JUMPI PUSH2 0x478 PUSH2 0x406 JUMP JUMPDEST JUMPDEST PUSH0 PUSH2 0x486 DUP5 DUP3 DUP6 ADD PUSH2 0x450 JUMP JUMPDEST SWAP2 POP POP SWAP3 SWAP2 POP POP JUMP JUMPDEST PUSH0 DUP2 SWAP1 POP SWAP2 SWAP1 POP JUMP JUMPDEST PUSH2 0x4A1 DUP2 PUSH2 0x48F JUMP JUMPDEST DUP3 MSTORE POP POP JUMP JUMPDEST PUSH0 PUSH1 0x20 DUP3 ADD SWAP1 POP PUSH2 0x4BA PUSH0 DUP4 ADD DUP5 PUSH2 0x498 JUMP JUMPDEST SWAP3 SWAP2 POP POP JUMP JUMPDEST PUSH2 0x4C9 DUP2 PUSH2 0x48F JUMP JUMPDEST DUP2 EQ PUSH2 0x4D3 JUMPI PUSH0 DUP1 REVERT JUMPDEST POP JUMP JUMPDEST PUSH0 DUP2 CALLDATALOAD SWAP1 POP PUSH2 0x4E4 DUP2 PUSH2 0x4C0 JUMP JUMPDEST SWAP3 SWAP2 POP POP JUMP JUMPDEST PUSH0 DUP1 PUSH1 0x40 DUP4 DUP6 SUB SLT ISZERO PUSH2 0x500 JUMPI PUSH2 0x4FF PUSH2 0x406 JUMP JUMPDEST JUMPDEST PUSH0 PUSH2 0x50D DUP6 DUP3 DUP7 ADD PUSH2 0x450 JUMP JUMPDEST SWAP3 POP POP PUSH1 0x20 PUSH2 0x51E DUP6 DUP3 DUP7 ADD PUSH2 0x4D6 JUMP JUMPDEST SWAP2 POP POP SWAP3 POP SWAP3 SWAP1 POP JUMP JUMPDEST PUSH32 0x4E487B7100000000000000000000000000000000000000000000000000000000 PUSH0 MSTORE PUSH1 0x11 PUSH1 0x4 MSTORE PUSH1 0x24 PUSH0 REVERT JUMPDEST PUSH0 PUSH2 0x55F DUP3 PUSH2 0x48F JUMP JUMPDEST SWAP2 POP PUSH2 0x56A DUP4 PUSH2 0x48F JUMP JUMPDEST SWAP3 POP DUP3 DUP3 MUL PUSH2 0x578 DUP2 PUSH2 0x48F JUMP JUMPDEST SWAP2 POP DUP3 DUP3 DIV DUP5 EQ DUP4 ISZERO OR PUSH2 0x58F JUMPI PUSH2 0x58E PUSH2 0x528 JUMP JUMPDEST JUMPDEST POP SWAP3 SWAP2 POP POP JUMP JUMPDEST PUSH0 PUSH2 0x5A0 DUP3 PUSH2 0x48F JUMP JUMPDEST SWAP2 POP PUSH2 0x5AB DUP4 PUSH2 0x48F JUMP JUMPDEST SWAP3 POP DUP3 DUP3 ADD SWAP1 POP DUP1 DUP3 GT ISZERO PUSH2 0x5C3 JUMPI PUSH2 0x5C2 PUSH2 0x528 JUMP JUMPDEST JUMPDEST SWAP3 SWAP2 POP POP JUMP JUMPDEST PUSH0 PUSH2 0x5D3 DUP3 PUSH2 0x48F JUMP JUMPDEST SWAP2 POP PUSH2 0x5DE DUP4 PUSH2 0x48F JUMP JUMPDEST SWAP3 POP DUP3 DUP3 SUB SWAP1 POP DUP2 DUP2 GT ISZERO PUSH2 0x5F6 JUMPI PUSH2 0x5F5 PUSH2 0x528 JUMP JUMPDEST JUMPDEST SWAP3 SWAP2 POP POP JUMP JUMPDEST PUSH32 0x4E487B7100000000000000000000000000000000000000000000000000000000 PUSH0 MSTORE PUSH1 0x12 PUSH1 0x4 MSTORE PUSH1 0x24 PUSH0 REVERT JUMPDEST PUSH0 PUSH2 0x633 DUP3 PUSH2 0x48F JUMP JUMPDEST SWAP2 POP PUSH2 0x63E DUP4 PUSH2 0x48F JUMP JUMPDEST SWAP3 POP DUP3 PUSH2 0x64E JUMPI PUSH2 0x64D PUSH2 0x5FC JUMP JUMPDEST JUMPDEST DUP3 DUP3 DIV SWAP1 POP SWAP3 SWAP2 POP POP JUMP INVALID LOG2 PUSH5 0x6970667358 0x22 SLT KECCAK256 BALANCE 0xC2 0x23 AND AND DUP3 0xBD PUSH27 0xA97F52BFE9230AB048A25D2D953739FEBCFEDA94991D3BE64736F PUSH13 0x634300081A0033000000000000 "
		},
		"gasEstimates": {
			"creation": {
				"codeDepositCost": "335800",
				"executionCost": "49588",
				"totalCost": "385388"
			},
			"external": {
				"buy_assetv(address,uint256)": "infinite",
				"equity_in_assetv(address)": "2852",
				"equity_in_usd(address)": "2830",
				"max_assetv()": "2490",
				"sell_assetv(address,uint256)": "infinite",
				"total_assetv_bought()": "2469",
				"usd_to_assetv()": "2470"
			}
		},
		"methodIdentifiers": {
			"buy_assetv(address,uint256)": "69c85507",
			"equity_in_assetv(address)": "3f275742",
			"equity_in_usd(address)": "10c51c1b",
			"max_assetv()": "9305add5",
			"sell_assetv(address,uint256)": "8443c81d",
			"total_assetv_bought()": "892a0d64",
			"usd_to_assetv()": "401b6caf"
		}
	},
	"abi": [
		{
			"inputs": [
				{
					"internalType": "address",
					"name": "investor",
					"type": "address"
				},
				{
					"internalType": "uint256",
					"name": "usd_invested",
					"type": "uint256"
				}
			],
			"name": "buy_assetv",
			"outputs": [],
			"stateMutability": "nonpayable",
			"type": "function"
		},
		{
			"inputs": [
				{
					"internalType": "address",
					"name": "investor",
					"type": "address"
				}
			],
			"name": "equity_in_assetv",
			"outputs": [
				{
					"internalType": "uint256",
					"name": "",
					"type": "uint256"
				}
			],
			"stateMutability": "view",
			"type": "function"
		},
		{
			"inputs": [
				{
					"internalType": "address",
					"name": "investor",
					"type": "address"
				}
			],
			"name": "equity_in_usd",
			"outputs": [
				{
					"internalType": "uint256",
					"name": "",
					"type": "uint256"
				}
			],
			"stateMutability": "view",
			"type": "function"
		},
		{
			"inputs": [],
			"name": "max_assetv",
			"outputs": [
				{
					"internalType": "uint256",
					"name": "",
					"type": "uint256"
				}
			],
			"stateMutability": "view",
			"type": "function"
		},
		{
			"inputs": [
				{
					"internalType": "address",
					"name": "investor",
					"type": "address"
				},
				{
					"internalType": "uint256",
					"name": "assetv_sold",
					"type": "uint256"
				}
			],
			"name": "sell_assetv",
			"outputs": [],
			"stateMutability": "nonpayable",
			"type": "function"
		},
		{
			"inputs": [],
			"name": "total_assetv_bought",
			"outputs": [
				{
					"internalType": "uint256",
					"name": "",
					"type": "uint256"
				}
			],
			"stateMutability": "view",
			"type": "function"
		},
		{
			"inputs": [],
			"name": "usd_to_assetv",
			"outputs": [
				{
					"internalType": "uint256",
					"name": "",
					"type": "uint256"
				}
			],
			"stateMutability": "view",
			"type": "function"
		}
	]
}